{
  "contractName": "TollTransactions",
  "abi": [
    {
      "anonymous": false,
      "inputs": [
        {
          "indexed": true,
          "internalType": "uint256",
          "name": "id",
          "type": "uint256"
        },
        {
          "indexed": true,
          "internalType": "address",
          "name": "userPublicKey",
          "type": "address"
        },
        {
          "indexed": true,
          "internalType": "address",
          "name": "tollBoothPublicKey",
          "type": "address"
        },
        {
          "indexed": false,
          "internalType": "uint256",
          "name": "amount",
          "type": "uint256"
        }
      ],
      "name": "TransactionCompleted",
      "type": "event"
    },
    {
      "inputs": [
        {
          "internalType": "uint256",
          "name": "",
          "type": "uint256"
        }
      ],
      "name": "transactions",
      "outputs": [
        {
          "internalType": "uint256",
          "name": "id",
          "type": "uint256"
        },
        {
          "internalType": "address",
          "name": "userPublicKey",
          "type": "address"
        },
        {
          "internalType": "address",
          "name": "tollBoothPublicKey",
          "type": "address"
        },
        {
          "internalType": "uint256",
          "name": "amount",
          "type": "uint256"
        }
      ],
      "stateMutability": "view",
      "type": "function"
    },
    {
      "inputs": [
        {
          "internalType": "uint256",
          "name": "_id",
          "type": "uint256"
        },
        {
          "internalType": "address",
          "name": "_userPublicKey",
          "type": "address"
        },
        {
          "internalType": "address",
          "name": "_tollBoothPublicKey",
          "type": "address"
        },
        {
          "internalType": "uint256",
          "name": "_amount",
          "type": "uint256"
        }
      ],
      "name": "makeTransaction",
      "outputs": [],
      "stateMutability": "payable",
      "type": "function"
    },
    {
      "inputs": [
        {
          "internalType": "uint256",
          "name": "_id",
          "type": "uint256"
        }
      ],
      "name": "getTransaction",
      "outputs": [
        {
          "internalType": "uint256",
          "name": "id",
          "type": "uint256"
        },
        {
          "internalType": "address",
          "name": "userPublicKey",
          "type": "address"
        },
        {
          "internalType": "address",
          "name": "tollBoothPublicKey",
          "type": "address"
        },
        {
          "internalType": "uint256",
          "name": "amount",
          "type": "uint256"
        }
      ],
      "stateMutability": "view",
      "type": "function"
    }
  ],
  "bytecode": "0x608060405234801561000f575f80fd5b506107dd8061001d5f395ff3fe608060405260043610610033575f3560e01c806333ea3dc8146100375780639ace38c214610076578063d83aba18146100b5575b5f80fd5b348015610042575f80fd5b5061005d600480360381019061005891906104fc565b6100d1565b60405161006d9493929190610575565b60405180910390f35b348015610081575f80fd5b5061009c600480360381019061009791906104fc565b610218565b6040516100ac9493929190610575565b60405180910390f35b6100cf60048036038101906100ca91906105e2565b610281565b005b5f805f805f805f8781526020019081526020015f206040518060800160405290815f8201548152602001600182015f9054906101000a900473ffffffffffffffffffffffffffffffffffffffff1673ffffffffffffffffffffffffffffffffffffffff1673ffffffffffffffffffffffffffffffffffffffff168152602001600282015f9054906101000a900473ffffffffffffffffffffffffffffffffffffffff1673ffffffffffffffffffffffffffffffffffffffff1673ffffffffffffffffffffffffffffffffffffffff16815260200160038201548152505090505f815f0151036101f5576040517f08c379a00000000000000000000000000000000000000000000000000000000081526004016101ec906106a0565b60405180910390fd5b805f01518160200151826040015183606001519450945094509450509193509193565b5f602052805f5260405f205f91509050805f015490806001015f9054906101000a900473ffffffffffffffffffffffffffffffffffffffff1690806002015f9054906101000a900473ffffffffffffffffffffffffffffffffffffffff16908060030154905084565b8034146102c3576040517f08c379a00000000000000000000000000000000000000000000000000000000081526004016102ba90610708565b60405180910390fd5b5f805f8681526020019081526020015f205f015414610317576040517f08c379a000000000000000000000000000000000000000000000000000000000815260040161030e90610770565b60405180910390fd5b60405180608001604052808581526020018473ffffffffffffffffffffffffffffffffffffffff1681526020018373ffffffffffffffffffffffffffffffffffffffff168152602001828152505f808681526020019081526020015f205f820151815f01556020820151816001015f6101000a81548173ffffffffffffffffffffffffffffffffffffffff021916908373ffffffffffffffffffffffffffffffffffffffff1602179055506040820151816002015f6101000a81548173ffffffffffffffffffffffffffffffffffffffff021916908373ffffffffffffffffffffffffffffffffffffffff160217905550606082015181600301559050508173ffffffffffffffffffffffffffffffffffffffff166108fc8290811502906040515f60405180830381858888f19350505050158015610458573d5f803e3d5ffd5b508173ffffffffffffffffffffffffffffffffffffffff168373ffffffffffffffffffffffffffffffffffffffff16857fdc8b3e3bd87b1ed41b4cff3b9ab24f89261ed2b876257d5d33ed0c3472bacaf6846040516104b7919061078e565b60405180910390a450505050565b5f80fd5b5f819050919050565b6104db816104c9565b81146104e5575f80fd5b50565b5f813590506104f6816104d2565b92915050565b5f60208284031215610511576105106104c5565b5b5f61051e848285016104e8565b91505092915050565b610530816104c9565b82525050565b5f73ffffffffffffffffffffffffffffffffffffffff82169050919050565b5f61055f82610536565b9050919050565b61056f81610555565b82525050565b5f6080820190506105885f830187610527565b6105956020830186610566565b6105a26040830185610566565b6105af6060830184610527565b95945050505050565b6105c181610555565b81146105cb575f80fd5b50565b5f813590506105dc816105b8565b92915050565b5f805f80608085870312156105fa576105f96104c5565b5b5f610607878288016104e8565b9450506020610618878288016105ce565b9350506040610629878288016105ce565b925050606061063a878288016104e8565b91505092959194509250565b5f82825260208201905092915050565b7f5472616e73616374696f6e206e6f7420666f756e642e000000000000000000005f82015250565b5f61068a601683610646565b915061069582610656565b602082019050919050565b5f6020820190508181035f8301526106b78161067e565b9050919050565b7f496e636f727265637420616d6f756e742073656e742e000000000000000000005f82015250565b5f6106f2601683610646565b91506106fd826106be565b602082019050919050565b5f6020820190508181035f83015261071f816106e6565b9050919050565b7f5472616e73616374696f6e20494420616c7265616479206578697374732e00005f82015250565b5f61075a601e83610646565b915061076582610726565b602082019050919050565b5f6020820190508181035f8301526107878161074e565b9050919050565b5f6020820190506107a15f830184610527565b9291505056fea264697066735822122068e0f68b0262a364a8a368f819d42c114b1c924535e6639a1e48144a3e8e764564736f6c63430008150033",
  "immutableReferences": {},
  "source": "// SPDX-License-Identifier: MIT\r\npragma solidity ^0.8.0;\r\n\r\ncontract TollTransactions {\r\n    // Struct to store transaction details\r\n    struct Transaction {\r\n        uint256 id;\r\n        address userPublicKey;\r\n        address tollBoothPublicKey;\r\n        uint256 amount;\r\n    }\r\n\r\n    // Mapping to store transactions by their ID\r\n    mapping(uint256 => Transaction) public transactions;\r\n\r\n    // Event to log transaction details\r\n    event TransactionCompleted(\r\n        uint256 indexed id,\r\n        address indexed userPublicKey,\r\n        address indexed tollBoothPublicKey,\r\n        uint256 amount\r\n    );\r\n\r\n    // Function to facilitate a transaction\r\n    function makeTransaction(\r\n        uint256 _id,\r\n        address _userPublicKey,\r\n        address _tollBoothPublicKey,\r\n        uint256 _amount\r\n    ) public payable {\r\n        require(msg.value == _amount, \"Incorrect amount sent.\");\r\n        require(transactions[_id].id == 0, \"Transaction ID already exists.\");\r\n\r\n        // Record the transaction details\r\n        transactions[_id] = Transaction({\r\n            id: _id,\r\n            userPublicKey: _userPublicKey,\r\n            tollBoothPublicKey: _tollBoothPublicKey,\r\n            amount: _amount\r\n        });\r\n\r\n        // Transfer the amount to the toll booth\r\n        payable(_tollBoothPublicKey).transfer(_amount);\r\n\r\n        // Emit an event for logging\r\n        emit TransactionCompleted(_id, _userPublicKey, _tollBoothPublicKey, _amount);\r\n    }\r\n\r\n    // Function to fetch transaction details by ID\r\n    function getTransaction(uint256 _id)\r\n        public\r\n        view\r\n        returns (\r\n            uint256 id,\r\n            address userPublicKey,\r\n            address tollBoothPublicKey,\r\n            uint256 amount\r\n        )\r\n    {\r\n        Transaction memory txn = transactions[_id];\r\n        require(txn.id != 0, \"Transaction not found.\");\r\n        return (txn.id, txn.userPublicKey, txn.tollBoothPublicKey, txn.amount);\r\n    }\r\n}\r\n",
  "sourcePath": "C:\\Users\\ujjaw\\Downloads\\work\\block chain\\blockchainproject\\blockhain-toll-truffle\\contracts\\Tolltransactions.sol",
  "compiler": {
    "name": "solc",
    "version": "0.8.21+commit.d9974bed.Emscripten.clang"
  },
  "schemaVersion": "3.4.16",
  "updatedAt": "2024-11-19T07:09:32.988Z",
  "devdoc": {
    "kind": "dev",
    "methods": {},
    "version": 1
  },
  "userdoc": {
    "kind": "user",
    "methods": {},
    "version": 1
  }
}